:020000040800F2
:100000003015002065010008770B00088D070008F7
:10001000750B0008110200087111000800000000B3
:100020000000000000000000000000008D0E00082D
:100030001302000800000000790B00083D100008C2
:100040007F0100087F0100087F0100087F01000890
:100050007F0100087F0100087F0100087F01000880
:100060007F0100087F0100087F0100087F01000870
:100070007F0100087F0100087F0100087F01000860
:100080007F0100087F0100087F0100087F01000850
:100090007F0100087F0100087F0100087F01000840
:1000A0007F0100087F0100087F0100087F01000830
:1000B0007F0100087F0100087F0100087F01000820
:1000C0007F0100087F0100087F0100087F01000810
:1000D0007F0100087F0100087F0100087F01000800
:1000E0007F0100087F0100087F0100087F010008F0
:1000F0007F0100087F0100087F0100087F010008E0
:100100007F0100087F0100087F0100087F010008CF
:100110007F0100087F0100087F0100087F010008BF
:100120007F0100087F0100087F0100087F010008AF
:10013000DFF80CD000F05AF80048004753130008CD
:1001400030150020EFF30980704780F3098870476D
:10015000EFF30880704780F30888704740BA704713
:10016000C0BA70470648804706480047FEE7FEE7EA
:10017000FEE7FEE7FEE7FEE7FEE7FEE7FEE7FEE757
:10018000411000083101000840EA01039B0703D039
:1001900009E008C9121F08C0042AFAD203E011F8C6
:1001A000013B00F8013B521EF9D27047D2B201E088
:1001B00000F8012B491EFBD270470022F6E710B56C
:1001C00013460A4604461946FFF7F0FF204610BDC5
:1001D00010B5002200E0521C835C8C5CA34201D16C
:1001E000002BF8D1D8B2E1B2401A10BD064C074D31
:1001F00006E0E06840F0010394E8070098471034F7
:10020000AC42F6D3FFF798FFB0130008D0130008F4
:10021000FEE770472DE9F34182B000240F46042524
:100220000094029800F08AF9064600F0D3F9DFF84E
:10023000488011E008EBC42000F030F90546012F9A
:1002400009D1611C684600F075FC684600F040FE6C
:100250000AA000F03DFE641CB44201D2042DE9D096
:1002600000F064F9B44201D1042D03D0002004B0A1
:10027000BDE8F0810120FAE70030000840000000EE
:100280002DE9F0474FF001094FF00208042700F074
:1002900047F91E4E05467068A84335D000F03AF97C
:1002A000044670682843706000F0BAF8054670682C
:1002B000411C03D0C04300F05DF80546E043400711
:1002C0000ED0E00700D18146A00701D44FF000080E
:1002D000600700D400273A464146484600F086F9B8
:1002E000042D04D00AA0BDE8F04700F0F1BD10A035
:1002F00000F0EEFD15480168154A01F4E061114374
:100300000160BFF3408FFEE712A0ECE70000002081
:100310004572726F723A20756E70726F7465637495
:10032000696F6E206661696C65642E0D0A000000BD
:1003300057726974652050726F74656374696F6E6B
:1003400020436C6F73652E0D0A0000000CED00E079
:100350000400FA05466C617368206E6F7420777232
:100360006974652070726F7465637465642E0D0A1C
:10037000000000002DE9F043C043C7B2C0F30726D8
:10038000C0F30745040E4FF40059484600F05EF9EB
:1003900004283BD1DFF87C801D4AC8F808201E4A9B
:1003A000C8F80820D8F8102042F01002C8F8102031
:1003B000FF2F06D019480780484600F047F9042867
:1003C0001BD1FF2E07D01548801C0680484600F040
:1003D0003DF9042811D1FF2D07D01048001D0580DC
:1003E000484600F033F9042807D1FF2C07D00B480A
:1003F000801D0480484600F029F9052806D0D8F869
:10040000102041F6EF731A40C8F81020BDE8F083C1
:100410002301674500200240AB89EFCD08F8FF1F9C
:1004200070B5A52500F06CF800B100254FF430261A
:10043000304600F00BF9042827D1154C1348A06072
:100440001448A060206940F020002061206940F03D
:1004500040002061304600F0F9F841F6EF760428BC
:100460000ED1206941F6DF7108402061206940F01B
:1004700010002061084805804FF4005000F0E6F8B5
:10048000052802D021693140216170BD23016745F3
:1004900000200240AB89EFCD00F8FF1F70B5054684
:1004A0004FF43026304600F0D1F8042811D1094C21
:1004B000206940F0020020616561206940F0400041
:1004C0002061304600F0C2F8216941F6FD7211400A
:1004D000216170BD0020024008490420CA68D2078B
:1004E00001D001207047CA68520701D50220704729
:1004F000C968C906FBD503207047000000200240F0
:1005000003490020C969890700D501207047000010
:10051000002002400148C069800870470020024066
:100520000148006A7047000000200240024801694B
:1005300041F08001016170470020024001B5009840
:10054000410503D0012101EBD02008BDC00A08BD40
:10055000F0B506464FF400570D46384600F076F8E1
:1005600004280CD1064C206940F001002061358040
:10057000384600F06BF82169BA1E11402161F0BDC8
:10058000002002402DE9F841064600204FF40057B4
:1005900000900D46384600F059F8042816D10C4C4E
:1005A000206940F0010020613580B846384600F0EF
:1005B0004DF8BF1E042806D1B61C280C00963080CA
:1005C000404600F043F8216939402161BDE8F881D7
:1005D00000200240034802494160034941607047DE
:1005E0002301674500200240AB89EFCD2DE9F041A2
:1005F000134C0746114816460D46A0601148A060EE
:100600004FF40058404600F021F8042813D1206927
:1006100040F01000206135430B493D4345F0F800A0
:100620000880404600F012F8052804D0216941F600
:10063000EF7211402161BDE8F081000023016745A0
:1006400000200240AB89EFCD02F8FF1F00B5034642
:10065000FFF742FF02E0FFF73FFF5B1E012803D0D8
:10066000002B00D1052000BD002BF4D1FAE7F0B536
:10067000CC78002204F00F03E40601D58C782343E4
:100680000C784FF00F0C4FF0010EDCB105680E88AE
:100690000EFA02F42640A64210D196000CFA06F794
:1006A00025EA070703FA06F5CE783D43282E02D047
:1006B000482E02D002E0446100E00461521C082A86
:1006C000E5D305600A88FF2A1CD94468002202F19C
:1006D00008060EFA06F50E882E40AE420ED19600A0
:1006E0000CFA06F7BC4303FA06F7CE783C43282EF3
:1006F00000D14561CE78482E00D10561521C082AF0
:10070000E5D34460F0BD000070B50546002400F05C
:1007100031F80A2802D008280BD004E0291911F872
:10072000011C0D2912D0802C07D30CA000F0D0FBA7
:10073000ECE7002CEBD0641EE9E7A0F120015E2974
:1007400001D90D28E3D12855641CE0E708A000F08A
:10075000BFFB0020291901F8010C70BD20436D6416
:100760002073697A65206F7665722E0D0A0000008D
:100770000D0A000008B500208DF80000684600F062
:1007800087FB0028FAD09DF8000008BDFEE70000B6
:1007900008B500200090FA21684600F0CBF90AA0C5
:1007A00000F096FB684600F093FB08A000F090FB79
:1007B00001214FF4FA20FFF72DFD08B1002008BDFC
:1007C0004FF0FF3008BD0000204000004000000056
:1007D000014800F0B2BA00000028000801B5FFF798
:1007E000F9FE01226946034800F0AAFAFFF79EFECF
:1007F00008BD00000028000830B5A1B0802168467F
:10080000FFF7DBFC3548364C01250068A0F100609D
:10081000000B20603E2804D205FA00F0401EC043C1
:1008200001E04FF000406060FFF77AFE61688143AD
:1008300001D0A56001E00020A0602AA000F048FBE4
:1008400030A000F045FB32A000F042FB33A000F0E6
:100850003FFB35A000F03CFB35A000F039FBA06861
:1008600010B136A000F034FB6846FFF74DFF36A10B
:100870006846FFF7ADFCE0B135A16846FFF7A8FC7C
:10088000D0B135A16846FFF7A3FCC0B134A16846DA
:10089000FFF79EFCC8B134A16846FFF799FC80B110
:1008A00033A16846FFF794FCA0B133A000F010FB21
:1008B000C3E74EF6EE6004E04DF6DD5001E04CF685
:1008C000CC40FFF78BFF21B030BD4FF6FF70FFF734
:1008D00085FFB2E7FFF7D4FCAFE70000140000206B
:1008E000000000200D0A20494150204D61696E2012
:1008F0004D656E7520285620302E312E34290D0A74
:1009000000000000207570646174650D0A0000002D
:100910002075706C6F61640D0A00000020657261C3
:1009200073650D0A00000000206D656E750D0A00EC
:100930002072756E6170700D0A000000206469738A
:1009400077700D0A00000000757064617465000026
:1009500075706C6F61640000657261736500000002
:100960006D656E750000000072756E61707000003C
:10097000646973777000000020496E76616C696469
:1009800020434D4420210D0A0000000070B50D4D9C
:1009900028680D490840B0F1005F05D00BA000F0B9
:1009A00097FA4FF0FF3070BD0EA000F091FA686822
:1009B000114C2061E0602868FFF7CDFBE0688047BC
:1009C000002070BD003000080000FE2F0D0A2052EC
:1009D000756E20746F20617070206572726F722E58
:1009E0000D0A00000D0A2052756E20746F20617090
:1009F000702E0D0A00000000000000201FB54FF40B
:100A0000E13000900020ADF80400ADF80600ADF82C
:100A10000800ADF80C000C20ADF80A00684600F0A4
:100A200003FA1FBD3EB500200090019002901D48C2
:100A300000F0A0FB041E17DD1BA000F049FA1FA068
:100A400000F046FA1F4800F043FA2146684600F0DD
:100A500071F81DA000F03CFA684600F039FA1DA0BC
:100A600000F036FA00203EBD601C09D0A01C0DD05D
:100A7000E41C11D01AA000F02BFA6FF003003EBD69
:100A80001CA000F025FA4FF0FF303EBD1EA000F084
:100A90001FFA6FF001003EBD20A000F019FA6FF0C0
:100AA00002003EBD300000200D0A205570646174C4
:100AB00065204F766572210D0A000000204E616DA1
:100AC000653A2000300C00200D0A2053697A653AFF
:100AD000200000002042797465732E0D0A0000008A
:100AE00020526563656976652046696C65642E0DE4
:100AF0000A0000000D0A20496D61676520546F6F80
:100B000020426967210D0A000D0A20557064617446
:100B100065206661696C6564210D0A000D0A20413B
:100B2000626F7274656420627920757365722E0D30
:100B30000A000000F0B500220D4B144615464FF098
:100B40000A0CB1FBF3F603FB161106F130078754CC
:100B5000521CB3FBFCF3861816F8016C302E00D142
:100B600024B1641C6D1C0A2DEBD3F0BD0022F9E703
:100B700000CA9A3BFEE7704770470000044A00290C
:100B8000916901D0014300E0814391617047000009
:100B90000010024030B5204A5168204B11F00C0182
:100BA00003D0042901D0082901D0036012E0516864
:100BB000536801F470114FF0020413F4803F04EB0A
:100BC000914102D053689B0301D5154B00E0134BB4
:100BD0005943016051680F2303EA1111114B5C5C0A
:100BE0000168E14041605468072505EA14241C5D52
:100BF00021FA04F48460546805EAD4241B5DD940CA
:100C0000C1605268032303EA9232064B1B1F9A5CB1
:100C1000B1FBF2F1016130BD0010024000127A0018
:100C200000093D002000002070B50C46054604E098
:100C3000284600F02DF9012804D0641EF8D24FF0A8
:100C4000FF3070BD002070BD2DE9F84F88460021AF
:100C50000546C8F80010924611466846FFF7E4FFC3
:100C60004FF0FF3978BB9DF80010A2291DD010DC91
:100C7000182932D006DC01291DD0022924D00429EC
:100C800049D14CE0412934D0612932D0A12942D147
:100C900009E0A1F1A30007283DD2DFE800F0080A2F
:100CA0000C0E11151800082413E0102411E0202464
:100CB0000FE040240DE080240BE04FF4807408E046
:100CC0004FF4007405E026E04FF4806401E04FF437
:100CD000006401262970671D15E051466846FFF73C
:100CE000A3FFC0B99DF80000182814D1C8F80090DF
:100CF00015E00120BDE8F88FA8195146FFF794FFD1
:100D000048B9761CB6B2BE42F6D3A978687881F0AD
:100D1000FF01884201D04846ECE7C8F800400020B7
:100D2000E8E710B5002305E030F8024B21F8134046
:100D30005B1C9BB29342F7D310BD00887047000044
:100D40002DE9F05FA0F10064154688468246B4F1B3
:100D5000005F50D2FFF73EFCE70AC4F34906C6F530
:100D60008064A54200D82C46DFF890B04FF00060B8
:100D700000EBC72081464FF480622049FFF7D1FF86
:100D800000204FF6FF7206E033183BF81310914233
:100D900003D1401C80B2A042F6D3A04223D24846E1
:100DA000FFF77CFB00205A4606E038F81010831944
:100DB000401C22F8131080B2A042F6D348464FF4EC
:100DC00080620E4900F01CF8A54210D0281B08EBE9
:100DD0004408A2447F1C002685B24FF48064A542DB
:100DE000C4D82C46C2E7224641465046EAE7BDE851
:100DF000F05FFFF79BBBBDE8F09F000030040020D0
:100E00002DE9F04116460F460546002407E037F865
:100E100014102846FFF79CFBAD1C641CA4B2B4421E
:100E2000F5D3BDE8F081000038B504460121052066
:100E3000FFF7A4FE01218803FFF7A0FE18228DF81A
:100E400003204FF40072ADF8002003200D4D8DF803
:100E5000020069462846FFF70AFC04228DF80320A9
:100E60001002ADF8000069462846FFF700FC214655
:100E7000054C204600F01EF90121204600F008F93B
:100E800038BD0000000801400038014070470000F4
:100E900010B504462021054800F004F9002804D0CC
:100EA0000248001D00882070012010BD003801405C
:100EB00010B5064C0146204600F056F98021204628
:100EC00000F0F0F80028F9D010BD00000038014013
:100ED00010B5044602E0FFF7EBFF641C2078002801
:100EE000F9D110BD0CB5002226480092019201688C
:100EF00041F4803101604FF4A063016801F40031D6
:100F000001910099491C0091019911B900999942E8
:100F1000F3D10168890333D5012101911A490A6887
:100F200042F010020A600A6822F003020A600A68AE
:100F300042F002020A6041684160416841604168D4
:100F400041F480614160416821F47C114160416855
:100F500041F4E8114160016841F08071016001686D
:100F60008901FCD5416821F003014160416841F0ED
:100F7000020141604168C1F381010229FAD10CBD2F
:100F800001920CBD001002400020024070B5002309
:100F900002781C46302A04D14278782A0AD0582A8E
:100FA00008D06FF02F05C25CAAB16B2A2AD04B2A59
:100FB00028D02CE0827802B30223C25C5AB1A2F19D
:100FC0004105052D09D9A2F16106052E05D9113576
:100FD000092D06D930E00C6017E0A2F13006092E89
:100FE00001D8303A04E0052D01D8373A00E0573AED
:100FF0005B1C02EB04140B2BDFD301E00B2B00D3A3
:10100000002070BD1BB1A00207E00120F6E76D2AA9
:1010100001D04D2A03D113B120050860F5E7A2F1F4
:101020003006092E08D804EB840405EB44045B1C4D
:1010300014440B2BB7D3E3E70020DFE77047000031
:101040000F4810B5016841F00101016041680D4A87
:101050001140416001680C4A11400160016821F4AF
:1010600080210160416821F4FE0141604FF41F01BD
:101070008160FFF737FF05494FF00060086010BD41
:10108000001002400000FFF8FFFFF6FE08ED00E050
:101090000029818902D041F4005101E021F400517E
:1010A000818170470246002012880A4200D0012048
:1010B0007047000030B50446008A85B00D464CF6F6
:1010C000FF710840E98801432182A0894EF6F3119F
:1010D0000840A9882A8911436A8902431143A181E2
:1010E000A08A4FF6FF410840A9890143A1826846C2
:1010F000FFF750FD1B48844201D1039800E002989D
:10110000A1890904002900EBC00101EB0010296846
:1011100002DA4FEA410101E04FEA8101B0FBF1F050
:101120006422B0FBF2F14FEA01114FEA11136FF0A4
:1011300018056B4300EB8300A3891D044FF03203B5
:1011400006D503EBC000B0FBF2F000F0070005E0AD
:1011500003EB0010B0FBF2F000F00F000843208119
:1011600005B030BD00380140C1F3080181807047EF
:10117000FEE700002DE9F04FADF2244D804600203F
:101180006A4ECDF80804DFF8A0A14320C6F800A0FD
:10119000FFF78EFE002005460746EB46CDF82004FB
:1011A0000024A1464FF480120DF21C416846FFF75F
:1011B0004BFD88B1012869D0002F00DD6D1C052D85
:1011C0007DDD1820FFF774FE1820FFF771FE002068
:1011D0000DF2244DBDE8F08FDDF81C240025B2F19E
:1011E000FF3F07D042B19DF80100E1B2884207D02D
:1011F00015208AE00620E8E70620FFF759FE8AE07E
:1012000044B10BF103014046FEF7BEFF0027C6F8CC
:1012100004805FE09DF80300B8B300200BF10301E8
:10122000434F02E03A54491C401C0A780AB1FF2897
:10123000F8DD00233B541846491C0DF20C4702E030
:101240003A54491C401C0A78202A01D01028F7DBA8
:101250003B540DF581613846FFF798FEDDF8080430
:10126000B0F5002F08DA0021FEF7D4FF20B10620E8
:10127000FFF71EFE432039E01820FFF719FE182063
:10128000FFF716FE4FF0FF30A2E700E033E0062044
:10129000FFF70EFE44E0FFF79DF9706801683068C3
:1012A000FFF770F9FFF742F93068716802680B6860
:1012B0009A420AD01820FFF7FBFD182000E023E037
:1012C000FFF7F6FD6FF0010082E7001D091D3F1DCD
:1012D000C6E90001DDF81C04874206DADDF80824BF
:1012E000316802EB0A008142D5D30620FFF7E0FD0A
:1012F000641C01270BE01820FFF7DAFD1820FFF728
:10130000D7FD6FF0020063E74320FFF7D1FDB9F18D
:10131000000F3FF447AFDDF8200400283FF440AF52
:10132000DDF8080454E70000003000081400002035
:10133000300C002002E008C8121F08C1002AFAD1B0
:1013400070477047002001E001C1121F002AFBD145
:101350007047FFF753FB4DF6DD544FF6FF75FFF76F
:1013600037FAA0F55D41DD39A042F8D007DC88B13D
:10137000A0F54C40CC38F2D1FFF70AFA0EE0A1F507
:10138000885111390CD0A1F588511139E7D1FFF7F7
:1013900033FAE4E7FFF7FAFA0028E0D0284603E042
:1013A000FFF740FB0028F9D1FFF718FAD7E7000054
:1013B000D0130008000000203000000034130008A3
:1013C000001400083000002000150000441300083D
:1013D000000000000000000000000000000000000D
:1013E00000000000003000080000000002040608B1
:1013F00000000000010203040102030406070809BB
:0400000508000131BD
:00000001FF
