:020000040800F2
:1000000030110020550100086F0B00088D07000813
:100010006D0B0008010200086D11000800000000CF
:10002000000000000000000000000000950E000825
:100030000302000800000000710B000835100008E2
:100040006F0100086F0100086F0100086F010008D0
:100050006F0100086F0100086F0100086F010008C0
:100060006F0100086F0100086F0100086F010008B0
:100070006F0100086F0100086F0100086F010008A0
:100080006F0100086F0100086F0100080000000008
:100090000000000000000000000000006F010008E8
:1000A0006F0100086F0100086F0100086F01000870
:1000B0006F0100086F0100086F0100086F01000860
:1000C0006F0100086F0100086F0100086F01000850
:1000D0006F0100086F0100086F0100086F01000840
:1000E0006F0100086F0100086F01000800000000A8
:1000F0000000000000000000000000000000000000
:1001000000000000000000000000000000000000EF
:1001100000000000000000006F0100086F010008EF
:10012000DFF80CD000F05AF80048004743130008ED
:1001300030110020EFF30980704780F30988704781
:10014000EFF30880704780F30888704740BA704723
:10015000C0BA70470648804706480047FEE7FEE7FA
:10016000FEE7FEE7FEE7FEE7FEE7FEE7FEE7FEE767
:10017000391000082101000840EA01039B0703D061
:1001800009E008C9121F08C0042AFAD203E011F8D6
:10019000013B00F8013B521EF9D27047D2B201E098
:1001A00000F8012B491EFBD270470022F6E710B57C
:1001B00013460A4604461946FFF7F0FF204610BDD5
:1001C00010B5002200E0521C835C8C5CA34201D17C
:1001D000002BF8D1D8B2E1B2401A10BD064C074D41
:1001E00006E0E06840F0010394E807009847103407
:1001F000AC42F6D3FFF798FFA0130008C013000825
:10020000FEE770472DE9F34182B0002488460425BB
:100210000094029800F08CF9064600F0D5F9134FCF
:1002200013E000BF07EB842000F032F90546B8F177
:10023000010F09D1611C684600F076FC684600F0A9
:100240004BFE0BA000F048FE641CB44201D2042D0A
:10025000E8D000F065F9B44201D1042D03D00020AC
:1002600004B0BDE8F0810120FAE70000003000088A
:10027000400000002DE9F0474FF001094FF002085F
:10028000042700F047F91E4D06466868B04335D094
:1002900000F03AF9044668683043686000F0BAF844
:1002A00006466868411C03D0C04300F05DF806466E
:1002B000E04340070ED0E00700D18146A00701D4FB
:1002C0004FF00008600700D400273A4641464846F0
:1002D00000F086F9042E04D00AA0BDE8F04700F033
:1002E000FBBD10A000F0F8FD15480168154A01F4A7
:1002F000E06111430160BFF3408FFEE712A0ECE71D
:10030000000000204572726F723A20756E70726F35
:1003100074656374696F6E206661696C65642E0D27
:100320000A00000057726974652050726F7465632B
:1003300074696F6E20436C6F73652E0D0A000000A8
:100340000CED00E00400FA05466C617368206E6FE6
:10035000742077726974652070726F746563746558
:10036000642E0D0A000000002DE9F043C043C7B21F
:10037000C0F30726C0F30745040E4FF40059484662
:1003800000F05EF904283BD1DFF87C801D4AC8F8F4
:1003900008201E4AC8F80820D8F8102042F01002A1
:1003A000C8F81020FF2F06D019480780484600F0F3
:1003B00047F904281BD1FF2E07D01548801C068062
:1003C000484600F03DF9042811D1FF2D07D0104810
:1003D000001D0580484600F033F9042807D1FF2CA2
:1003E00007D00B48801D0480484600F029F90528F5
:1003F00006D0D8F8102041F6EF731A40C8F8102044
:10040000BDE8F0832301674500200240AB89EFCDB2
:1004100008F8FF1F70B5A52500F06CF800B10025A5
:100420004FF43026304600F00BF9042827D1154C44
:100430001348A0601448A060206940F020002061AB
:10044000206940F040002061304600F0F9F841F6A4
:10045000EF7604280ED1206941F6DF710840206153
:10046000206940F010002061084805804FF40050DA
:1004700000F0E6F8052802D021693140216170BD05
:100480002301674500200240AB89EFCD00F8FF1F34
:1004900070B505464FF43026304600F0D1F80428F8
:1004A00011D1094C206940F002002061656120698A
:1004B00040F040002061304600F0C2F8216941F66A
:1004C000FD721140216170BD0020024008490420E6
:1004D000CA68D20701D001207047CA68520701D507
:1004E00002207047C968C906FBD503207047000089
:1004F0000020024003490020C969890700D5012076
:1005000070470000002002400148C0698008704721
:10051000002002400148006A7047000000200240AD
:100520000248016941F080010161704700200240EA
:1005300001B50098810503D0012101EB902008BD91
:10054000800A08BDF0B506464FF400570D46384600
:1005500000F076F804280CD1064C206940F0010028
:1005600020613580384600F06BF82169BA1E1140D1
:100570002161F0BD002002402DE9F841064600202F
:100580004FF4005700900D46384600F059F8042803
:1005900016D10C4C206940F0010020613580B8462E
:1005A000384600F04DF8BF1E042806D1B61C280CB2
:1005B00000963080404600F043F8216939402161BF
:1005C000BDE8F88100200240034802494160034928
:1005D000416070472301674500200240AB89EFCDA1
:1005E0002DE9F041134C0746114816460D46A06010
:1005F0001148A0604FF40058404600F021F804284C
:1006000013D1206940F01000206135430B493D4370
:1006100045F0F8000880404600F012F8052804D0A4
:10062000216941F6EF7211402161BDE8F0810000BF
:100630002301674500200240AB89EFCD02F8FF1F80
:1006400000B50346FFF742FF03E000BFFFF73EFFA0
:100650005B1E012803D0002B00D1052000BD002B1C
:10066000F4D1FAE7F0B5CA78002502F00F03D206FC
:1006700001D58A7813430C784FF00F0E0122ECB1AC
:10068000D0F800400F8802FA05F63740B74211D182
:100690004FEA850C0EFA0CF724EA070703FA0CF46C
:1006A0003C43CF78282F02D0482F02D002E0466189
:1006B00000E006616D1C082DE4D304600C88FF2C5B
:1006C0001ED944685FF0000606F1080702FA07F534
:1006D0000F882F40AF420FD14FEA860C0EFA0CF76D
:1006E000BC4303FA0CF73C43CF78282F00D1456177
:1006F000CF78482F00D10561761C082EE4D34460E2
:10070000F0BD000070B505465FF0000400F032F85F
:100710000A2802D008280BD004E0291911F8011C7E
:100720000D2912D0802C07D30CA000F0D5FBEBE7ED
:10073000002CEBD0641EE9E7A0F120015E2901D96D
:100740000D28E3D12855641CE0E709A000F0C4FBA4
:100750000020291901F8010C70BD000020436D64D0
:100760002073697A65206F7665722E0D0A0000008D
:100770000D0A000008B500208DF80000684600F062
:100780008BFB0028FAD09DF8000008BDFEE70000B2
:1007900008B5002000907421684600F0C5F90AA051
:1007A00000F09AFB684600F097FB08A000F094FB6D
:1007B00001214FF4E830FFF725FD08B1002008BD06
:1007C0004FF0FF3008BD0000204000004000000056
:1007D000014800F0B2BA00000028000801B5FFF798
:1007E000F3FE01226946034800F0AAFAFFF798FEDB
:1007F00008BD00000028000830B5A1B0802168467F
:10080000FFF7D3FC3248334C01250068A0F10060AB
:10081000000B206005FA00F0401EC0436060FFF747
:1008200079FE6168814301D0A56001E00020A060ED
:1008300029A000F051FB30A000F04EFB31A000F0E9
:100840004BFB33A000F048FB34A000F045FB35A083
:1008500000F042FBA06810B135A000F03DFB6846F7
:10086000FFF750FF35A16846FFF7AAFCE0B135A1BC
:100870006846FFF7A5FCD0B134A16846FFF7A0FC9D
:10088000C0B134A16846FFF79BFCC8B133A16846EC
:10089000FFF796FC80B133A16846FFF791FCA0B149
:1008A00032A000F019FBC3E74EF6EE6004E04DF60F
:1008B000DD5001E04CF6CC40FFF790FF21B030BD99
:1008C0004FF6FF70FFF78AFFB2E7FFF7D3FCAFE701
:1008D00014000020000000200D0A20494150204D46
:1008E00061696E204D656E7520285620302E312EA0
:1008F00034290D0A00000000207570646174650DD4
:100900000A0000002075706C6F61640D0A00000021
:100910002065726173650D0A00000000206D656E30
:10092000750D0A002072756E6170700D0A0000006E
:100930002064697377700D0A0000000075706461AF
:100940007465000075706C6F61640000657261739E
:10095000650000006D656E750000000072756E61C7
:1009600070700000646973777000000020496E7633
:10097000616C696420434D4420210D0A0000000091
:1009800070B50D4D28680D490840B0F1005F05D0E5
:100990000BA000F0A1FA4FF0FF3070BD0EA000F0E8
:1009A0009BFA6868114C2061E0602868FFF7CBFB78
:1009B000E0688047002070BD003000080000FE2F76
:1009C0000D0A2052756E20746F2061707020657260
:1009D000726F722E0D0A00000D0A2052756E20747F
:1009E0006F206170702E0D0A0000000000000020D2
:1009F0001FB54FF4E13000900020ADF80400ADF8D1
:100A00000600ADF80800ADF80C000C20ADF80A00A7
:100A1000684600F00DFA1FBD3EB500200090019021
:100A200002901D4800F0A4FB041E17DD1BA000F07F
:100A300053FA1FA000F050FA1F4800F04DFA21466B
:100A4000684600F071F81DA000F046FA684600F014
:100A500043FA1DA000F040FA00203EBD601C09D002
:100A6000A01C0DD0E41C11D01AA000F035FA6FF0D4
:100A700003003EBD1CA000F02FFA4FF0FF303EBD3A
:100A80001EA000F029FA6FF001003EBD20A000F08A
:100A900023FA6FF002003EBD300000200D0A205501
:100AA0007064617465204F766572210D0A00000044
:100AB000204E616D653A2000300800200D0A205359
:100AC000697A653A200000002042797465732E0D22
:100AD0000A00000020526563656976652046696CEE
:100AE00065642E0D0A0000000D0A20496D616765DE
:100AF00020546F6F20426967210D0A000D0A2055AE
:100B00007064617465206661696C6564210D0A001A
:100B10000D0A2041626F72746564206279207573DA
:100B200065722E0D0A000000F0B500220E4B16462D
:100B300014464FF00A0C00BFB1FBF3F503FB15118F
:100B400005F130078754521CB3FBFCF3851815F8E8
:100B5000015C302D00D126B1761C641C0A2CEBD32D
:100B6000F0BD0022F9E7000000CA9A3BFEE770479B
:100B700070470000044A0029916901D0014300E058
:100B800081439161704700000010024030B5214957
:100B90004A6812F00C03204A03D0042B01D0082B22
:100BA00001D0026015E04B684C6803F470134FF0FD
:100BB000020514F4803F05EB934307D0CC6A04F0A0
:100BC0000F04641CB2FBF4F25A43EAE7134A53439E
:100BD00003604A680F23124C03EA1212A35C0268F6
:100BE000DA4042604B68072505EA1323E35C22FAEA
:100BF00003F383604B6805EAD323E35CDA40C26009
:100C00004968032303EA9131231F595CB2FBF1F1D8
:100C1000016130BD0010024000127A0000093D0061
:100C20002000002070B50C46054604E0284600F080
:100C300033F9012804D0641EF8D24FF0FF3070BDA4
:100C4000002070BD2DE9F84F884600210646C8F8FF
:100C50000010924611466846FFF7E4FF4FF0FF3957
:100C600078BB9DF80000A2281DD010DC182832D0D7
:100C700006DC01281DD0022824D0042849D14CE0EC
:100C8000412834D0612832D0A12842D109E0A0F116
:100C9000A30107293DD2DFE801F0080A0C0E111567
:100CA0001800082413E0102411E020240FE0402451
:100CB0000DE080240BE04FF4807408E04FF40074E2
:100CC00005E026E04FF4806401E04FF40064012564
:100CD0003070671D15E051466846FFF7A3FFC0B9A5
:100CE0009DF80000182814D1C8F8009015E00120E4
:100CF000BDE8F88F70195146FFF794FF48B96D1C95
:100D0000ADB2BD42F6D3B178707881F0FF01884270
:100D100001D04846ECE7C8F800400020E8E70000B2
:100D200010B5002306E000BF30F8024B21F8134055
:100D30005B1C9BB29342F7D310BD00887047000044
:100D40002DE9F05FA0F100644FF0006815468A4677
:100D50008346444553D2FFF737FCA70AC4F348063D
:100D6000C6F50074A54200D82C46DFF8989000BF65
:100D70004FF0006000EB872080464FF4007221495D
:100D8000FFF7CEFF00204FF6FF7106E0331839F869
:100D900013208A4203D1401C80B2A042F6D3A04265
:100DA00025D24046FFF774FB0020494607E000BF0C
:100DB0003AF810208319401C21F8132080B2A04279
:100DC000F6D3104940464FF4007200BF00F01CF803
:100DD000A54210D0281B0AEB440AA3447F1C00261E
:100DE00085B24FF40074A542C2D82C46C0E7224613
:100DF00051465846EAE7BDE8F05FFFF791BBBDE812
:100E0000F09F0000300400202DE9F04116460F4607
:100E10000546002408E000BF37F814102846FFF705
:100E200091FBAD1C641CA4B2B442F5D3BDE8F081C3
:100E300038B5044601210520FFF79CFE01218803F7
:100E4000FFF798FE18208DF803004FF40070ADF8FE
:100E5000000003200D4D8DF8020069462846FFF77B
:100E600001FC04208DF803000002ADF80000694683
:100E70002846FFF7F7FB2146054C204600F018F9FD
:100E80000121204600F002F938BD000000080140B1
:100E9000003801407047000010B504462021054885
:100EA00000F0FEF8002804D00248001D00882070E1
:100EB000012010BD0038014010B5064C0146204607
:100EC00000F050F98021204600F0EAF80028F9D01F
:100ED00010BD00000038014010B5044603E000BF1B
:100EE000FFF7EAFF641C20780028F9D110BD00004C
:100EF0000CB500211F4801910091026842F4803234
:100F000002604FF4A063026802F400320092019A7A
:100F1000521C0192009A12B9019A9A42F3D10268C6
:100F2000920324D5012100914168416041684160EC
:100F300041684160416821F47C114160416841F49D
:100F400098114160016841F0807101600168890178
:100F5000FCD5416821F003014160416841F0020184
:100F600041604168C1F381010229FAD10CBD0091B1
:100F70000CBD00000010024070B50022047813463A
:100F8000302C04D14478782C0AD0582C08D06FF03B
:100F90002F05845C74B36B2C2ED04B2C2CD030E0FE
:100FA00082780AB30224025D5AB1A2F14105052DEF
:100FB0000AD9A2F16106052E06D91135092D07D9E6
:100FC00013E001200B6011E0A2F13006092E01D8D8
:100FD000303A04E0052D01D8373A00E0573A641C56
:100FE00002EB03130B2CDED302E000200B2C00D30A
:100FF000002070BD0B6002E01AB1980207E00120EA
:1010000015E06D2C01D04D2C03D112B118050860EC
:10101000F5E7A4F13006092E08D803EB830305EBAE
:101020004303521C23440B2AB3D3E1E700200B2ACD
:10103000DED270BD70470000104810B5016841F065
:101040000101016041680E4A1140416001680D4A8A
:1010500011400160016821F480210160416821F4A0
:10106000FE0141604FF41F0181600021C162FFF762
:101070003FFF05494FF00060086010BD00100240BE
:101080000000FFF8FFFFF6FE08ED00E0002981896F
:1010900002D041F4005101E021F4005181817047F8
:1010A0000246002012880A4200D00120704700004A
:1010B00030B50446008A85B00D464CF6FF710840F5
:1010C000E98801432182A1894EF6F3100140A888E6
:1010D0002A8910436A890A431043A081A08A4FF6E7
:1010E000FF410840A9890143A1826846FFF74EFDF0
:1010F0001B48844201D1039800E00298A1890904A9
:10110000002900EBC00101EB0010296802DA4FEA68
:10111000410101E04FEA8101B0FBF1F06422B0FB34
:10112000F2F14FEA01114FEA11136FF018056B430A
:1011300000EB8300A3891D044FF0320306D503EBB7
:10114000C000B0FBF2F000F0070005E003EB001078
:10115000B0FBF2F000F00F000843208105B030BD75
:1011600000380140C1F3080181807047FEE70000AC
:101170002DE9F04FADF2244D80460020674CCDF8AC
:101180000804DFF894B14320C4F800B0FFF794FEE0
:101190000020054607464FF480194FF0FF3ACDF87E
:1011A000100400264A460DF20C416846FFF74AFD3E
:1011B00088B101286BD0002F00DD6D1C052D67DD87
:1011C0001820FFF779FE1820FFF776FE00200DF2B9
:1011D000244DBDE8F08FDDF80C240025524507D0E2
:1011E00042B19DF80100F1B288420BD015208FE08A
:1011F0000620E9E70620FFF75FFEDDF8100400286F
:10120000CFD049E046B10DF103014046FEF7B4FFEF
:101210000027C4F8048060E09DF80300B0B300210B
:101220000DF103003E4F02E07A54401C491C027845
:101230000AB1FF29F8DD00237B541946401C0DF24A
:10124000144702E07A54401C491C0278202A01D03D
:101250001029F7DB7B540DF581613846FFF78CFED2
:10126000DDF80804B0F5003F08DA0021FEF7CAFFF8
:1012700020B10620FFF720FE43203AE01820FFF7B8
:101280001BFE1820FFF718FE5046A0E701E035E0EE
:101290003DE00620FFF710FEDDF8080497E700BFE9
:1012A000FFF792F9606801682068FFF765F9FFF7BA
:1012B00037F92068616802680B689A4208D01820E4
:1012C000FFF7FAFD1820FFF7F7FD6FF001007EE74A
:1012D000001D091D3F1DC4E90001DDF80C04874213
:1012E00006DADDF80824206802EB0B018842D7D328
:1012F0000620FFF7E1FD761C012753E71820FFF7D2
:10130000DBFD1820FFF7D8FD6FF002005FE74320F8
:10131000FFF7D2FD46E7000000300008140000206F
:101320003008002002E008C8121F08C1002AFAD1C4
:1013300070477047002001E001C1121F002AFBD155
:101340007047FFF755FB4DF6DD544FF6FF75FFF77D
:101350003FFAA0F55D41DD39A042F8D007DC88B145
:10136000A0F54C40CC38F2D1FFF712FA0EE0A1F50F
:10137000885111390CD0A1F588511139E7D1FFF707
:101380003BFAE4E7FFF7FCFA0028E0D0284603E048
:10139000FFF742FB0028F9D1FFF720FAD7E700005A
:1013A000C0130008000000203000000024130008D3
:1013B000F013000830000020001100003413000872
:1013C000000000000000000000000000000000001D
:1013D00000000000003000080000000002040608C1
:1013E00000000000010203040102030406070809CB
:0400000508000121CD
:00000001FF
