:020000040800F2
:1000000030150020690100088F0B0008A5070008C3
:100010008D0B000815020008811100080000000087
:10002000000000000000000000000000B10E000809
:100030001702000800000000910B00085110000892
:100040008301000883010008830100088301000880
:100050008301000883010008830100088301000870
:100060008301000883010008830100088301000860
:100070008301000883010008830100088301000850
:1000800083010008830100088301000800000000CC
:1000900000000000000000000000000083010008D4
:1000A0008301000883010008830100088301000820
:1000B0008301000883010008830100088301000810
:1000C0008301000883010008830100088301000800
:1000D00083010008830100088301000883010008F0
:1000E00083010008830100088301000883010008E0
:1000F00083010008830100080000000000000000E8
:10010000830100080000000083010008830100084B
:1001100083010008830100088301000883010008AF
:10012000830100088301000883010008830100089F
:1001300083010008DFF80CD000F05AF800480047AF
:100140005713000830150020EFF30980704780F343
:1001500009887047EFF30880704780F3088870477C
:1001600040BA7047C0BA7047064880470648004703
:10017000FEE7FEE7FEE7FEE7FEE7FEE7FEE7FEE757
:10018000FEE7FEE7551000083501000840EA0103CC
:100190009B0703D009E008C9121F08C0042AFAD23D
:1001A00003E011F8013B00F8013B521EF9D2704701
:1001B000D2B201E000F8012B491EFBD270470022A9
:1001C000F6E710B513460A4604461946FFF7F0FF56
:1001D000204610BD10B5002200E0521C835C8C5CF0
:1001E000A34201D1002BF8D1D8B2E1B2401A10BD20
:1001F000064C074D06E0E06840F0010394E8070074
:1002000098471034AC42F6D3FFF798FFB8130008B4
:10021000D8130008FEE770472DE9F34182B00024AF
:10022000884604250094029800F08CF9064600F0F8
:10023000D5F9134F13E000BF07EBC42000F032F9EB
:100240000546B8F1010F09D1611C684600F07EFC3B
:10025000684600F04FFE0BA000F04CFE641CB44258
:1002600001D2042DE8D000F065F9B44201D1042D8B
:1002700003D0002004B0BDE8F0810120FAE70000BF
:1002800000300008400000002DE9F0474FF0010960
:100290004FF00208042700F047F91E4D0646686833
:1002A000B04335D000F03AF90446686830436860DE
:1002B00000F0BAF806466868411C03D0C04300F05D
:1002C0005DF80646E04340070ED0E00700D18146C6
:1002D000A00701D44FF00008600700D400273A4679
:1002E0004146484600F086F9042E04D00AA0BDE835
:1002F000F04700F0FFBD10A000F0FCFD15480168BC
:10030000154A01F4E06111430160BFF34F8FFEE72E
:1003100012A0ECE7000000204572726F723A20755F
:100320006E70726F74656374696F6E206661696C5C
:1003300065642E0D0A0000005772697465205072C2
:100340006F74656374696F6E20436C6F73652E0DF7
:100350000A0000000CED00E00400FA05466C617331
:1003600068206E6F742077726974652070726F7484
:1003700065637465642E0D0A000000002DE9F043EA
:10038000C043C7B2C0F30726C0F30745040E4FF4BD
:100390000059484600F05EF904283BD1DFF87C8024
:1003A0001D4AC8F808201E4AC8F80820D8F81020AE
:1003B00042F01002C8F81020FF2F06D0194807801D
:1003C000484600F047F904281BD1FF2E07D01548F6
:1003D000801C0680484600F03DF9042811D1FF2D0D
:1003E00007D01048001D0580484600F033F9042866
:1003F00007D1FF2C07D00B48801D0480484600F031
:1004000029F9052806D0D8F8102041F6EF731A40D4
:10041000C8F81020BDE8F0832301674500200240A2
:10042000AB89EFCD08F8FF1F70B5A52500F06CF87B
:1004300000B100254FF43026304600F00BF90428B7
:1004400027D1154C1348A0601448A060206940F0E3
:1004500020002061206940F040002061304600F01B
:10046000F9F841F6EF7604280ED1206941F6DF71E4
:1004700008402061206940F0100020610848058094
:100480004FF4005000F0E6F8052802D02169314011
:10049000216170BD2301674500200240AB89EFCD8B
:1004A00000F8FF1F70B505464FF43026304600F0C7
:1004B000D1F8042811D1094C206940F002002061D4
:1004C0006561206940F040002061304600F0C2F8CC
:1004D000216941F6FD721140216170BD002002408A
:1004E00008490420CA68D20701D001207047CA68B1
:1004F000520701D502207047C968C906FBD5032001
:10050000704700000020024003490020C9698907A4
:1005100000D5012070470000002002400148C0695A
:1005200080087047002002400148006A70470000C0
:10053000002002400248016941F0800101617047DA
:100540000020024001B50098410503D0012101EBD4
:10055000D02008BDC00A08BDF0B506464FF40057CC
:100560000D46384600F076F804280CD1064C206978
:1005700040F0010020613580384600F06BF82169B9
:10058000BA1E11402161F0BD002002402DE9F84162
:10059000064600204FF4005700900D46384600F004
:1005A00059F8042816D10C4C206940F00100206154
:1005B0003580B846384600F04DF8BF1E042806D1F5
:1005C000B61C280C00963080404600F043F82169A4
:1005D00039402161BDE8F88100200240034802490A
:1005E0004160034941607047230167450020024094
:1005F000AB89EFCD2DE9F041134C07461148164663
:100600000D46A0601148A0604FF40058404600F02D
:1006100021F8042813D1206940F0100020613543EF
:100620000B493D4345F0F8000880404600F012F8C1
:10063000052804D0216941F6EF7211402161BDE81F
:10064000F08100002301674500200240AB89EFCD17
:1006500002F8FF1F00B50346FFF742FF03E000BFAB
:10066000FFF73EFF5B1E012803D0002B00D10520C1
:1006700000BD002BF4D1FAE7F0B5CA78002502F0EE
:100680000F03D20601D58A7813430A784FF00F0E74
:1006900012F0FF0F4FF001021CD004680F8802FA1D
:1006A00005F63740B74211D14FEA850C0EFA0CF728
:1006B00024EA070703FA0CF43C43CF78282F02D032
:1006C000482F02D002E0466100E006616D1C082D53
:1006D000E4D304600C88FF2C1ED944685FF0000648
:1006E00006F1080702FA07F50F882F40AF420FD135
:1006F0004FEA860C0EFA0CF7BC4303FA0CF73C43A6
:10070000CF78282F00D14561CF78482F00D10561DF
:10071000761C082EE4D34460F0BD000070B5054699
:100720005FF0000400F032F80A2802D008280BD04D
:1007300004E0291911F8011C0D2912D0802C07D3CF
:100740000CA000F0D7FBEBE7002CEBD0641EE9E730
:10075000A0F120015E2901D90D28E3D12855641CA0
:10076000E0E709A000F0C6FB0020291901F8010C00
:1007700070BD000020436D642073697A65206F7638
:1007800065722E0D0A0000000D0A000008B5002059
:100790008DF80000684600F08DFB0028FAD09DF827
:1007A000000008BDFEE7000008B500200090FA2117
:1007B000684600F0CBF90AA000F09CFB684600F008
:1007C00099FB08A000F096FB01214FF4FA20FFF7F7
:1007D00023FD08B1002008BD4FF0FF3008BD000028
:1007E0002040000040000000014800F0B6BA0000C0
:1007F0000028000801B5FFF7F1FE01226946034811
:1008000000F0AEFAFFF796FE08BD000000280008D1
:1008100030B5A1B080216846FFF7D1FC3548364C91
:1008200001250068A0F10060000B20603E2804D282
:1008300005FA00F0401EC04301E04FF00040606048
:10084000FFF772FE6168814301D0A56001E00020DE
:10085000A0602AA000F04EFB30A000F04BFB32A0BD
:1008600000F048FB33A000F045FB35A000F042FB50
:1008700035A000F03FFBA06810B136A000F03AFBB5
:100880006846FFF74BFF36A16846FFF7A3FCE0B1CF
:1008900035A16846FFF79EFCD0B135A16846FFF749
:1008A00099FCC0B134A16846FFF794FCC8B134A1EB
:1008B0006846FFF78FFC80B133A16846FFF78AFCDA
:1008C000A0B133A000F016FBC3E74EF6EE6004E0E3
:1008D0004DF6DD5001E04CF6CC40FFF78BFF21B028
:1008E00030BD4FF6FF70FFF785FFB2E7FFF7CCFC96
:1008F000AFE7000014000020000000200D0A20498E
:100900004150204D61696E204D656E75202856203E
:10091000302E312E34290D0A00000000207570643D
:100920006174650D0A0000002075706C6F61640DC4
:100930000A0000002065726173650D0A0000000066
:10094000206D656E750D0A002072756E6170700DF8
:100950000A0000002064697377700D0A000000002F
:10096000757064617465000075706C6F616400007F
:1009700065726173650000006D656E7500000000B2
:1009800072756E61707000006469737770000000AA
:1009900020496E76616C696420434D4420210D0A24
:1009A0000000000070B50D4D28680D490840B0F1F9
:1009B000005F05D00BA000F09DFA4FF0FF3070BD36
:1009C0000EA000F097FA6868114C2061E06028687A
:1009D000FFF7C3FBE0688047002070BD00300008CF
:1009E0000000FE2F0D0A2052756E20746F2061707A
:1009F00070206572726F722E0D0A00000D0A20526F
:100A0000756E20746F206170702E0D0A000000005A
:100A1000000000201FB54FF4E13000900020ADF839
:100A20000400ADF80600ADF80800ADF80C000C208D
:100A3000ADF80A00684600F009FA1FBD3EB5002077
:100A40000090019002901D4800F09CFB041E17DDF1
:100A50001BA000F04FFA1FA000F04CFA1F4800F056
:100A600049FA2146684600F071F81DA000F042FAEC
:100A7000684600F03FFA1DA000F03CFA00203EBDA1
:100A8000601C09D0A01C0DD0E41C11D01AA000F0ED
:100A900031FA6FF003003EBD1CA000F02BFA4FF0BE
:100AA000FF303EBD1EA000F025FA6FF001003EBDF4
:100AB00020A000F01FFA6FF002003EBD30000020C1
:100AC0000D0A20557064617465204F766572210DA2
:100AD0000A000000204E616D653A2000300C0020B5
:100AE0000D0A2053697A653A20000000204279748B
:100AF00065732E0D0A0000002052656365697665F6
:100B00002046696C65642E0D0A0000000D0A20491C
:100B10006D61676520546F6F20426967210D0A007F
:100B20000D0A20557064617465206661696C6564A6
:100B3000210D0A000D0A2041626F72746564206203
:100B40007920757365722E0D0A000000F0B5002241
:100B50000D4B154614460A27B1FBF3F63036865482
:100B6000B1FBF3F603FB1611B3FBF7F3521C861827
:100B700016F8016C302E00D125B16D1C641C0A2CB6
:100B8000EAD3F0BD0022F9E700CA9A3BFEE77047BE
:100B900070470000044A0029916901D0014300E038
:100BA00081439161704700000010024030B5214937
:100BB0004A6812F00C03204A03D0042B01D0082B02
:100BC00001D0026015E04B684C6803F470134FF0DD
:100BD000020514F4803F05EB934307D0CC6A04F080
:100BE0000F04641CB2FBF4F25A43EAE7134A53437E
:100BF00003604A680F23124C03EA1212A35C0268D6
:100C0000DA4042604B68072505EA1323E35C22FAC9
:100C100003F383604B6805EAD323E35CDA40C260E8
:100C20004968032303EA9131231F595CB2FBF1F1B8
:100C3000016130BD0010024000127A0000093D0041
:100C40002000002070B50C46054604E0284600F060
:100C500031F9012804D0641EF8D24FF0FF3070BD86
:100C6000002070BD2DE9F84F884600210646C8F8DF
:100C70000010924611466846FFF7E4FF4FF0FF3937
:100C800078BB9DF80000A2281DD010DC182832D0B7
:100C900006DC01281DD0022824D0042849D14CE0CC
:100CA000412834D0612832D0A12842D109E0A0F1F6
:100CB000A30107293DD2DFE801F0080A0C0E111547
:100CC0001800082413E0102411E020240FE0402431
:100CD0000DE080240BE04FF4807408E04FF40074C2
:100CE00005E026E04FF4806401E04FF40064012544
:100CF0003070671D15E051466846FFF7A3FFC0B985
:100D00009DF80000182814D1C8F8009015E00120C3
:100D1000BDE8F88F70195146FFF794FF48B96D1C74
:100D2000ADB2BD42F6D3B178707881F0FF01884250
:100D300001D04846ECE7C8F800400020E8E7000092
:100D400010B5002306E000BF30F8024B21F8134035
:100D50005B1C9BB29342F7D310BD00887047000024
:100D60002DE9F05FA0F1006415468A468346B4F190
:100D7000005F52D2FFF732FCE70AC4F34906C6F51A
:100D80008064A54200D82C46DFF894904FF00060B4
:100D900000EBC72080464FF480622149FFF7D0FF67
:100DA00000204FF6FF7106E0331839F813208A420D
:100DB00003D1401C80B2A042F6D3A04225D24046C7
:100DC000FFF770FB0020494607E000BF3AF810200B
:100DD0008319401C21F8132080B2A042F6D3104999
:100DE00040464FF4806200BF00F01CF8A54210D0CE
:100DF000281B0AEB440AA344002685B24FF4806402
:100E00007F1CA542C2D82C46C0E722465146584610
:100E1000EAE7BDE8F05FFFF78DBBBDE8F09F00009B
:100E2000300400202DE9F04116460F460546002407
:100E300008E000BF37F814102846FFF78DFB641C4C
:100E4000A4B2AD1CB442F5D3BDE8F08138B5044678
:100E500001210520FFF79EFE01218803FFF79AFE7E
:100E600018208DF803004FF40070ADF80000032047
:100E70000D4D8DF8020069462846FFF7FDFB042062
:100E80008DF803000002ADF8000069462846FFF720
:100E9000F3FB2146054C204600F018F901212046BD
:100EA00000F002F938BD00000008014000380140A0
:100EB0007047000010B504462021054800F0FEF8F8
:100EC000002804D00248001D00882070012010BDB9
:100ED0000038014010B5064C0146204600F04CF9A0
:100EE0008021204600F0EAF80028F9D010BD00006B
:100EF0000038014010B5044603E000BFFFF7EAFFE9
:100F0000641C20780028F9D110BD00000CB5002128
:100F10001F4801910091026842F4803202604FF450
:100F2000A063026802F400320092019A521C0192FE
:100F3000009A12B9019A9A42F3D10268920324D519
:100F40000121009141684160416841604168416010
:100F5000416821F47C114160416841F4981141607D
:100F6000016841F08071016001688901FCD5416828
:100F700021F003014160416841F002014160416894
:100F8000C1F381010229FAD10CBD00910CBD000012
:100F90000010024070B5002204781346302C04D1B2
:100FA0004478782C0AD0582C08D06FF02F05845C38
:100FB00074B36B2C2ED04B2C2CD030E082780AB33B
:100FC0000224025D5AB1A2F14105052D0AD9A2F110
:100FD0006106052E06D91135092D07D913E0012028
:100FE0000B6011E0A2F13006092E01D8303A04E07E
:100FF000052D01D8373A00E0573A641C02EB031381
:101000000B2CDED302E000200B2C00D3002070BD9F
:101010000B6002E01AB1980207E0012015E06D2C88
:1010200001D04D2C03D112B118050860F5E7A4F1E9
:101030003006092E08D803EB830305EB4303521C4B
:1010400023440B2AB3D3E1E700200B2ADED270BD84
:1010500070470000104810B5016841F001010160BF
:1010600041680E4A1140416001680D4A114001601B
:10107000016821F480210160416821F4FE01416092
:101080004FF41F0181600021C162FFF73FFF054956
:101090004FF00060086010BD001002400000FFF833
:1010A000FFFFF6FE08ED00E00029818902D041F43F
:1010B000005101E021F40051818170470246002077
:1010C00012880A4200D001207047000030B5044663
:1010D000008A85B00D464CF6FF710840E98801434F
:1010E0002182A1894EF6F3100140A8882A89104375
:1010F0006A890A431043A081A08A4FF6FF41084045
:10110000A9890143A1826846FFF750FD194884422E
:1011100001D1039800E00298A189090400EBC00105
:1011200001EB0010296801D5490000E08900B0FBFF
:10113000F1F06422B0FBF2F109010B096FF0180520
:101140006B4300EB8300A3891D044FF0320306D5E7
:1011500003EBC000B0FBF2F000F0070005E003EB8A
:101160000010B0FBF2F000F00F000843208105B042
:1011700030BD000000380140C1F308018180704794
:10118000FEE700002DE9F04FADF2244D804600202F
:10119000674CCDF80804DFF894B14320C4F800B0E0
:1011A000FFF798FE0020054607464FF480194FF0E0
:1011B000FF3ACDF8100400264A460DF20C4168466D
:1011C000FFF750FD88B101286BD0002F00DD6D1CAA
:1011D000052D67DD1820FFF77DFE1820FFF77AFE4A
:1011E00000200DF2244DBDE8F08FDDF80C24002521
:1011F000524507D042B19DF80100F1B288420BD0B0
:1012000015208FE00620E9E70620FFF763FEDDF8F2
:1012100010040028CFD049E046B140460DF103014B
:10122000FEF7B4FF0027C4F8048060E09DF80300D7
:10123000B0B300213F4F0DF1030002E07A54401C8F
:10124000491C02780AB1FF29F8DD00237B541946B6
:101250000DF21447401C02E07A54401C491C0278ED
:10126000202A01D01029F7DB7B540DF58161384627
:10127000FFF790FEDDF80804B0F5002F08DA002132
:10128000FEF7CAFF20B10620FFF724FE43203AE014
:101290001820FFF71FFE1820FFF71CFE5046A0E79E
:1012A00001E035E03DE00620FFF714FEDDF808041C
:1012B00097E700BFFFF792F9606801682068FFF7C1
:1012C00065F9FFF737F92068616802680B689A4290
:1012D00008D01820FFF7FEFD1820FFF7FBFD6FF088
:1012E00001007EE7001D091DC4E900013F1DDDF876
:1012F0000C04874206DADDF80824206802EB0B01B3
:101300008842D7D30620FFF7E5FD0127761C53E777
:101310001820FFF7DFFD1820FFF7DCFD6FF002005B
:101320005FE74320FFF7D6FD46E7000000300008E6
:1013300014000020300C002002E008C8121F08C171
:10134000002AFAD170477047002001E001C1121F46
:10135000002AFBD17047FFF75DFB4DF6DD544FF6D9
:10136000FF75FFF741FAA0F55D41DD39A042F8D0E5
:1013700008DCA0B1A0F6CC40B0F5404FF1D1FFF7AA
:1013800013FA10E001F6EF61B1F500510DD001F64E
:10139000EF61B1F5005FE4D1FFF73AFAE1E7FFF75B
:1013A00001FB0028DDD0284603E0FFF747FB0028BB
:1013B000F9D1FFF71FFAD4E7D81300080000002086
:1013C0003000000038130008081400083000002026
:1013D0000015000048130008000000000000000095
:1013E00000000000000000000000000000300008C5
:1013F00000000000020406080000000001020304CF
:081400000102030406070809BC
:0400000508000135B9
:00000001FF
