:020000040800F2
:100000003015002085010008A30B0008BD0700087B
:10001000A10B000831020008E111000800000000F7
:10002000000000000000000000000000B90E000801
:100030003302000800000000A50B0008A110000812
:100040009F0100089F0100089F0100089F01000810
:100050009F0100089F0100089F0100089F01000800
:100060009F0100089F0100089F0100089F010008F0
:100070009F0100089F0100089F0100089F010008E0
:100080009F0100089F0100089F0100089F010008D0
:100090009F0100089F0100089F0100089F010008C0
:1000A0009F0100089F0100089F0100089F010008B0
:1000B0009F0100089F0100089F0100089F010008A0
:1000C0009F0100089F0100089F0100089F01000890
:1000D0009F0100089F0100089F0100089F01000880
:1000E0009F0100089F0100089F0100080000000018
:1000F0000000000000000000000000000000000000
:1001000000000000000000009F0100089F0100089F
:100110009F0100089F0100089F0100089F0100083F
:100120009F0100089F0100089F0100089F0100082F
:100130009F0100089F0100089F0100089F0100081F
:100140009F0100089F0100089F0100089F0100080F
:10015000DFF80CD000F05AF800480047B713000849
:1001600030150020EFF30980704780F3098870474D
:10017000EFF30880704780F30888704740BA7047F3
:10018000C0BA70470648804706480047FEE7FEE7CA
:10019000FEE7FEE7FEE7FEE7FEE7FEE7FEE7FEE737
:1001A000A51000085101000840EA01039B0703D095
:1001B00009E008C9121F08C0042AFAD203E011F8A6
:1001C000013B00F8013B521EF9D27047D2B201E068
:1001D00000F8012B491EFBD270470022F6E710B54C
:1001E00013460A4604461946FFF7F0FF204610BDA5
:1001F00010B5002200E0521C835C8C5CA34201D14C
:10020000002BF8D1D8B2E1B2401A10BD064C074D10
:1002100006E0E06840F0010394E8070098471034D6
:10022000AC42F6D3FFF798FF14140008341400080A
:10023000FEE770472DE9F34182B00024884604258B
:100240000094029800F08CF9064600F0D5F9134F9F
:1002500013E000BF07EBC42000F032F90546B8F107
:10026000010F09D1611C684600F078FC684600F077
:1002700045FE0BA000F042FE641CB44201D2042DE6
:10028000E8D000F065F9B44201D1042D03D000207C
:1002900004B0BDE8F0810120FAE70000003000085A
:1002A000400000002DE9F0474FF001094FF002082F
:1002B000042700F047F91E4D06466868B04335D064
:1002C00000F03AF9044668683043686000F0BAF814
:1002D00006466868411C03D0C04300F05DF806463E
:1002E000E04340070ED0E00700D18146A00701D4CB
:1002F0004FF00008600700D400273A4641464846C0
:1003000000F086F9042E04D00AA0BDE8F04700F002
:10031000F5BD10A000F0F2FD15480168154A01F482
:10032000E06111430160BFF3408FFEE712A0ECE7EC
:10033000000000204572726F723A20756E70726F05
:1003400074656374696F6E206661696C65642E0DF7
:100350000A00000057726974652050726F746563FB
:1003600074696F6E20436C6F73652E0D0A00000078
:100370000CED00E00400FA05466C617368206E6FB6
:10038000742077726974652070726F746563746528
:10039000642E0D0A000000002DE9F043C043C7B2EF
:1003A000C0F30726C0F30745040E4FF40059484632
:1003B00000F05EF904283BD1DFF87C801D4AC8F8C4
:1003C00008201E4AC8F80820D8F8102042F0100271
:1003D000C8F81020FF2F06D019480780484600F0C3
:1003E00047F904281BD1FF2E07D01548801C068032
:1003F000484600F03DF9042811D1FF2D07D01048E0
:10040000001D0580484600F033F9042807D1FF2C71
:1004100007D00B48801D0480484600F029F90528C4
:1004200006D0D8F8102041F6EF731A40C8F8102013
:10043000BDE8F0832301674500200240AB89EFCD82
:1004400008F8FF1F70B5A52500F06CF800B1002575
:100450004FF43026304600F00BF9042827D1154C14
:100460001348A0601448A060206940F0200020617B
:10047000206940F040002061304600F0F9F841F674
:10048000EF7604280ED1206941F6DF710840206123
:10049000206940F010002061084805804FF40050AA
:1004A00000F0E6F8052802D021693140216170BDD5
:1004B0002301674500200240AB89EFCD00F8FF1F04
:1004C00070B505464FF43026304600F0D1F80428C8
:1004D00011D1094C206940F002002061656120695A
:1004E00040F040002061304600F0C2F8216941F63A
:1004F000FD721140216170BD0020024008490420B6
:10050000CA68D20701D001207047CA68520701D5D6
:1005100002207047C968C906FBD503207047000058
:100520000020024003490020C969890700D5012045
:1005300070470000002002400148C06980087047F1
:10054000002002400148006A70470000002002407D
:100550000248016941F080010161704700200240BA
:1005600001B50098410503D0012101EBD02008BD61
:10057000C00A08BDF0B506464FF400570D46384690
:1005800000F076F804280CD1064C206940F00100F8
:1005900020613580384600F06BF82169BA1E1140A1
:1005A0002161F0BD002002402DE9F84106460020FF
:1005B0004FF4005700900D46384600F059F80428D3
:1005C00016D10C4C206940F0010020613580B846FE
:1005D000384600F04DF8BF1E042806D1B61C280C82
:1005E00000963080404600F043F82169394021618F
:1005F000BDE8F881002002400348024941600349F8
:10060000416070472301674500200240AB89EFCD70
:100610002DE9F041134C0746114816460D46A060DF
:100620001148A0604FF40058404600F021F804281B
:1006300013D1206940F01000206135430B493D4340
:1006400045F0F8000880404600F012F8052804D074
:10065000216941F6EF7211402161BDE8F08100008F
:100660002301674500200240AB89EFCD02F8FF1F50
:1006700000B50346FFF742FF03E000BFFFF73EFF70
:100680005B1E012803D0002B00D1052000BD002BEC
:10069000F4D1FAE7F0B5CA78002502F00F03D206CC
:1006A00001D58A7813430C784FF00F0E0122ECB17C
:1006B000D0F800400F8802FA05F63740B74211D152
:1006C0004FEA850C0EFA0CF724EA070703FA0CF43C
:1006D0003C43CF78282F02D0482F02D002E0466159
:1006E00000E006616D1C082DE4D304600C88FF2C2B
:1006F0001ED944685FF0000606F1080702FA07F504
:100700000F882F40AF420FD14FEA860C0EFA0CF73C
:10071000BC4303FA0CF73C43CF78282F00D1456146
:10072000CF78482F00D10561761C082EE4D34460B1
:10073000F0BD000070B505465FF0000400F032F82F
:100740000A2802D008280BD004E0291911F8011C4E
:100750000D2912D0802C07D30CA000F0CFFBEBE7C3
:10076000002CEBD0641EE9E7A0F120015E2901D93D
:100770000D28E3D12855641CE0E709A000F0BEFB7A
:100780000020291901F8010C70BD000020436D64A0
:100790002073697A65206F7665722E0D0A0000005D
:1007A0000D0A000008B500208DF80000684600F032
:1007B00085FB0028FAD09DF8000008BDFEE7000088
:1007C00008B5002000907A21684600F0C7F90AA019
:1007D00000F094FB684600F091FB07A000F08EFB50
:1007E00001214FF47430FFF725FD08B1002008BD4A
:1007F0004FF0FF3008BD000040000000014800F04D
:10080000B0BA00000028000801B5FFF7F5FE01228C
:100810006946034800F0A8FAFFF79AFE08BD0000F9
:100820000028000830B5A1B080216846FFF7D5FC4C
:100830003648374C01250068A0F10060000B2060AD
:100840003E2804D205FA00F0401EC04301E04FF0FC
:1008500000406060FFF776FE6168814301D0A560CB
:1008600001E00020A0602BA000F048FB31A000F0C8
:1008700045FB33A000F042FB34A000F03FFB36A064
:1008800000F03CFB36A000F039FBA06810B137A0A7
:1008900000F034FB38A000F031FB6846FFF74AFF58
:1008A00036A16846FFF7A4FCE0B136A16846FFF721
:1008B0009FFCD0B135A16846FFF79AFCC0B135A1C5
:1008C0006846FFF795FCC8B134A16846FFF790FC75
:1008D00080B134A16846FFF78BFCA0B133A000F0D3
:1008E0000DFBC0E74EF6EE6004E04DF6DD5001E092
:1008F0004CF6CC40FFF788FF21B030BD4FF6FF70BB
:10090000FFF782FFAFE7FFF7CDFCACE71400002054
:10091000000000200D0A20494150204D61696E20E1
:100920004D656E7520285620302E312E30290D0A47
:1009300000000000207570646174650D0A000000FD
:100940002075706C6F61640D0A0000002065726193
:1009500073650D0A00000000206D656E750D0A00BC
:100960002072756E6170700D0A000000206469735A
:1009700077700D0A000000000D0A000075706461B8
:100980007465000075706C6F61640000657261735E
:10099000650000006D656E750000000072756E6187
:1009A00070700000646973777000000020496E76F3
:1009B000616C696420434D4420210D0A0000000051
:1009C00070B50D4D28680D490840B0F1005F05D0A5
:1009D0000BA000F093FA4FF0FF3070BD0EA000F0B6
:1009E0008DFA6868104C2061E0602868FFF7C3FB4F
:1009F000E0688047002070BD003000080000FE2F36
:100A00002052756E20746F20617070206572726F55
:100A1000722E0D0A000000002052756E20746F20A7
:100A20006170702E0D0A0000000000201FB54FF409
:100A3000E13000900020ADF80400ADF80600ADF8FC
:100A40000800ADF80C000C20ADF80A00684600F074
:100A500001FA1FBD3EB500200090019002901D4894
:100A600000F0C0FB041E17DD1BA000F047FA1EA01B
:100A700000F044FA1E4800F041FA2146684600F0B2
:100A80006DF81CA000F03AFA684600F037FA1CA096
:100A900000F034FA00203EBD601C09D0A01C0DD02F
:100AA000E41C11D019A000F029FA6FF003003EBD3C
:100AB0001BA000F023FA4FF0FF303EBD1DA000F058
:100AC0001DFA6FF001003EBD1FA000F017FA6FF095
:100AD00002003EBD30000020205570646174652026
:100AE0004F766572210D0A00204E616D653A200037
:100AF000300C00200D0A2053697A653A200000006E
:100B00002042797465732E0D0A000000205265633F
:100B1000656976652046696C65642E0D0A000000E3
:100B200020496D61676520546F6F20426967210D10
:100B30000A00000020557064617465206661696C6C
:100B40006564210D0A0000002041626F72746564C3
:100B500020627920757365722E0D0A00F0B50022AF
:100B60000E4B164614464FF00A0C00BFB1FBF3F5CE
:100B700003FB151105F130078754521CB3FBFCF33E
:100B8000851815F8015C302D00D126B1761C641C47
:100B90000A2CEBD3F0BD0022F9E7000000CA9A3B13
:100BA000FEE7704770470000044A0029916901D0B0
:100BB000014300E081439161704700000010024052
:100BC000F0B52C4A51682C4B11F00C014FF00F0579
:100BD00004D02A4C042903D0082903D0036028E05C
:100BE000046026E05168536805EA914103F48033BC
:100BF0000D2901D0891C00E00621BBB1D36A13F492
:100C0000803FD36A03F00F0303F101030AD0D66AD1
:100C1000D76AC6F30316761CB4FBF6F4C7F30327B2
:100C2000BF1C7C43B4FBF3F34B43D7E7144B59434E
:100C300001605168134C05EA1111635C0168D940E9
:100C400041605368072505EA1323E35C21FA03F3A7
:100C50008360536805EAD323E35CD940C1605268DE
:100C6000032303EA9232231F9A5CB1FBF2F1016184
:100C7000F0BD00000010024000127A0040787D01B3
:100C800000093D002000002070B50C46054604E038
:100C9000284600F013F9012804D0641EF8D24FF062
:100CA000FF3070BD002070BD2DE9F84F884600214F
:100CB0000646C8F80010924611466846FFF7E4FF62
:100CC0004FF0FF39D0BB9DF8000004283AD006DC75
:100CD00001280DD002280DD003282FD106E01828B6
:100CE0000ED0412818D0612828D115E0402403E017
:100CF000802401E04FF4806401253070671D15E009
:100D000051466846FFF7C0FFC0B99DF8000018289B
:100D100014D1C8F8009015E00120BDE8F88F7019D3
:100D20005146FFF7B1FF48B96D1CADB2BD42F6D3D5
:100D3000B178707881F0FF01884201D04846ECE735
:100D4000C8F800400020E8E710B5002306E000BF27
:100D500030F8024B21F813405B1C9BB29342F7D34F
:100D600010BD0088704700002DE9F05FA0F100641D
:100D700015468A468346B4F1805F52D2FFF73CFCA9
:100D8000E70AC4F34906C6F58064A54200D82C469C
:100D9000DFF894904FF0006000EBC72080464FF4DE
:100DA00080622149FFF7D0FF00204FF6FF7106E077
:100DB000331839F813208A4203D1401C80B2A04274
:100DC000F6D3A04225D24046FFF77AFB00204946E1
:100DD00007E000BF3AF810208319401C21F81320C7
:100DE00080B2A042F6D3104940464FF4806200BF63
:100DF00000F01CF8A54210D0281B0AEB440AA344BB
:100E00007F1C002685B24FF48064A542C2D82C46D0
:100E1000C0E7224651465846EAE7BDE8F05FFFF7D3
:100E200097BBBDE8F09F0000300400202DE9F041A1
:100E300016460F460546002408E000BF37F8141098
:100E40002846FFF797FBAD1C641CA4B2B442F5D34F
:100E5000BDE8F08138B5044601210520FFF7A4FE66
:100E600001218803FFF7A0FE18208DF803004FF43E
:100E70000070ADF8000003200D4D8DF802006946AA
:100E80002846FFF707FC04208DF803000002ADF8A8
:100E9000000069462846FFF7FDFB2146054C204629
:100EA00000F040F90121204600F02AF938BD000089
:100EB00000080140003801407047000010B50446AA
:100EC0002021054800F026F9002804D00248001D22
:100ED00000882070012010BD0038014010B5064C7C
:100EE0000146204600F078F98021204600F012F9F2
:100EF0000028F9D010BD00000038014010B50446AC
:100F000003E000BFFFF7EAFF641C20780028F9D156
:100F100010BD00000CB500212E480191009102681F
:100F200042F4803202604FF4A063026802F400329F
:100F30000092019A521C0192009A12B9019A9A42A7
:100F4000F3D10268920342D50121009122490A6837
:100F500042F010020A600A6822F003020A600A687E
:100F600042F002020A6041684160416841604168A4
:100F700041F480614160C16A184A1140C162C16A8E
:100F8000174A1143C162016841F080610160016844
:100F90000901FCD5416821F47C114160416841F4AC
:100FA000E8114160016841F08071016001688901C8
:100FB000FCD5416821F003014160416841F0020124
:100FC00041604168C1F381010229FAD10CBD009151
:100FD0000CBD0000001002400020024000F0FEFFA7
:100FE0004406010070B5002204781346302C04D169
:100FF0004478782C0AD0582C08D06FF02F05845CE8
:1010000074B36B2C2ED04B2C2CD030E082780AB3EA
:101010000224025D5AB1A2F14105052D0AD9A2F1BF
:101020006106052E06D91135092D07D913E00120D7
:101030000B6011E0A2F13006092E01D8303A04E02D
:10104000052D01D8373A00E0573A641C02EB031330
:101050000B2CDED302E000200B2C00D3002070BD4F
:101060000B6002E01AB1980207E0012015E06D2C38
:1010700001D04D2C03D112B118050860F5E7A4F199
:101080003006092E08D803EB830305EB4303521CFB
:1010900023440B2AB3D3E1E700200B2ADED270BD34
:1010A00070470000124810B5016841F0010101606D
:1010B0004168104A1140416001680F4A11400160C7
:1010C000016821F480210160416821F4FE01416042
:1010D000016821F0A05101604FF47F01816000217F
:1010E000C162FFF717FF05494FF00060086010BDAF
:1010F000001002400000FFF0FFFFF6FE08ED00E0E8
:101100000029818902D041F4005101E021F400510D
:10111000818170470246002012880A4200D00120D7
:101120007047000030B50446008A85B00D464CF685
:10113000FF710840E98801432182A1894EF6F3102E
:101140000140A8882A8910436A890A431043A08174
:10115000A08A4FF6FF410840A9890143A182684651
:10116000FFF72EFD1B48844201D1039800E002984E
:10117000A1890904002900EBC00101EB00102968D6
:1011800002DA4FEA410101E04FEA8101B0FBF1F0E0
:101190006422B0FBF2F14FEA01114FEA11136FF034
:1011A00018056B4300EB8300A3891D044FF0320345
:1011B00006D503EBC000B0FBF2F000F0070005E03D
:1011C00003EB0010B0FBF2F000F00F0008432081A9
:1011D00005B030BD00380140C1F30801818070477F
:1011E000FEE700002DE9F04FADF2244D80460020CF
:1011F000674CCDF80804DFF894B14320C4F800B080
:10120000FFF76CFE0020054607464FF480194FF0AB
:10121000FF3ACDF8100400264A460DF20C4168460C
:10122000FFF742FD88B101286BD0002F00DD6D1C57
:10123000052D67DD1820FFF751FE1820FFF74EFE41
:1012400000200DF2244DBDE8F08FDDF80C240025C0
:10125000524507D042B19DF80100F1B288420BD04F
:1012600015208FE00620E9E70620FFF737FEDDF8BE
:1012700010040028CFD049E046B10DF103014046EB
:10128000FEF792FF0027C4F8048060E09DF8030099
:10129000B0B300210DF103003E4F02E07A54401C30
:1012A000491C02780AB1FF29F8DD00237B54194656
:1012B000401C0DF2144702E07A54401C491C02788D
:1012C000202A01D01029F7DB7B540DF581613846C7
:1012D000FFF788FEDDF80804B0F5802F08DA00215A
:1012E000FEF7A8FF20B10620FFF7F8FD43203AE003
:1012F0001820FFF7F3FD1820FFF7F0FD5046A0E798
:1013000001E035E03DE00620FFF7E8FDDDF80804E8
:1013100097E700BFFFF770F9606801682068FFF782
:1013200043F9FFF715F92068616802680B689A4273
:1013300008D01820FFF7D2FD1820FFF7CFFD6FF07F
:1013400001007EE7001D091D3F1DC4E90001DDF815
:101350000C04874206DADDF80824206802EB0B0152
:101360008842D7D30620FFF7B9FD761C012753E743
:101370001820FFF7B3FD1820FFF7B0FD6FF0020053
:101380005FE74320FFF7AAFD46E7000000300008B2
:1013900014000020300C002002E008C8121F08C111
:1013A000002AFAD170477047002001E001C1121FE6
:1013B000002AFBD17047FFF739FB4DF6DD544FF69D
:1013C000FF75FFF71BFAA0F55D41DD39A042F8D0AB
:1013D00007DC88B1A0F54C40CC38F2D1FFF7F0F92A
:1013E0000EE0A1F5885111390CD0A1F588511139C1
:1013F000E7D1FFF717FAE4E7FFF7E2FA0028E0D0B9
:10140000284603E0FFF726FB0028F9D1FFF7FCF997
:10141000D7E700003414000800000020300000006E
:101420009813000864140008300000200015000024
:10143000A8130008000000000000000000000000E9
:101440000000000000000000003000080000000064
:101450000204060800000000010203040102030464
:04146000060708096A
:04000005080001519D
:00000001FF
